{
  "contractName": "TeamMarket",
  "abi": [
    {
      "payable": false,
      "stateMutability": "nonpayable",
      "type": "fallback"
    },
    {
      "anonymous": false,
      "inputs": [
        {
          "indexed": false,
          "name": "addr",
          "type": "address"
        },
        {
          "indexed": false,
          "name": "name",
          "type": "string"
        },
        {
          "indexed": false,
          "name": "email",
          "type": "string"
        },
        {
          "indexed": false,
          "name": "major",
          "type": "string"
        }
      ],
      "name": "createSuccess",
      "type": "event"
    },
    {
      "anonymous": false,
      "inputs": [
        {
          "indexed": false,
          "name": "id",
          "type": "uint256"
        },
        {
          "indexed": false,
          "name": "addr",
          "type": "address"
        }
      ],
      "name": "joinSuccess",
      "type": "event"
    },
    {
      "anonymous": false,
      "inputs": [
        {
          "indexed": false,
          "name": "id",
          "type": "uint256"
        },
        {
          "indexed": false,
          "name": "theme",
          "type": "string"
        },
        {
          "indexed": false,
          "name": "intro",
          "type": "string"
        },
        {
          "indexed": false,
          "name": "requirement",
          "type": "string"
        },
        {
          "indexed": false,
          "name": "status",
          "type": "string"
        },
        {
          "indexed": false,
          "name": "max_num",
          "type": "uint256"
        },
        {
          "indexed": false,
          "name": "cred_at",
          "type": "uint256"
        }
      ],
      "name": "publishSuccess",
      "type": "event"
    },
    {
      "constant": true,
      "inputs": [],
      "name": "getJoinedComps",
      "outputs": [
        {
          "name": "",
          "type": "uint256[]"
        }
      ],
      "payable": false,
      "stateMutability": "view",
      "type": "function"
    },
    {
      "constant": true,
      "inputs": [],
      "name": "getPublishedComps",
      "outputs": [
        {
          "name": "",
          "type": "uint256[]"
        }
      ],
      "payable": false,
      "stateMutability": "view",
      "type": "function"
    },
    {
      "constant": true,
      "inputs": [
        {
          "name": "id",
          "type": "uint256"
        }
      ],
      "name": "getCompInfo",
      "outputs": [
        {
          "name": "",
          "type": "address"
        },
        {
          "name": "",
          "type": "string"
        },
        {
          "name": "",
          "type": "string"
        },
        {
          "name": "",
          "type": "string"
        },
        {
          "name": "",
          "type": "string"
        },
        {
          "name": "",
          "type": "uint256"
        },
        {
          "name": "",
          "type": "uint256"
        },
        {
          "name": "",
          "type": "uint256"
        }
      ],
      "payable": false,
      "stateMutability": "view",
      "type": "function"
    },
    {
      "constant": true,
      "inputs": [
        {
          "name": "addr",
          "type": "address"
        }
      ],
      "name": "getUserInfo",
      "outputs": [
        {
          "name": "",
          "type": "string"
        },
        {
          "name": "",
          "type": "string"
        },
        {
          "name": "",
          "type": "string"
        }
      ],
      "payable": false,
      "stateMutability": "view",
      "type": "function"
    },
    {
      "constant": true,
      "inputs": [
        {
          "name": "theme",
          "type": "string"
        },
        {
          "name": "intro",
          "type": "string"
        }
      ],
      "name": "hasPublished",
      "outputs": [
        {
          "name": "",
          "type": "bool"
        }
      ],
      "payable": false,
      "stateMutability": "view",
      "type": "function"
    },
    {
      "constant": true,
      "inputs": [
        {
          "name": "id",
          "type": "uint256"
        }
      ],
      "name": "hasJoined",
      "outputs": [
        {
          "name": "",
          "type": "bool"
        }
      ],
      "payable": false,
      "stateMutability": "view",
      "type": "function"
    },
    {
      "constant": false,
      "inputs": [
        {
          "name": "name",
          "type": "string"
        },
        {
          "name": "email",
          "type": "string"
        },
        {
          "name": "major",
          "type": "string"
        }
      ],
      "name": "createUsr",
      "outputs": [],
      "payable": false,
      "stateMutability": "nonpayable",
      "type": "function"
    },
    {
      "constant": false,
      "inputs": [
        {
          "name": "theme",
          "type": "string"
        },
        {
          "name": "intro",
          "type": "string"
        },
        {
          "name": "requirement",
          "type": "string"
        },
        {
          "name": "status",
          "type": "string"
        },
        {
          "name": "max_num",
          "type": "uint256"
        }
      ],
      "name": "publish",
      "outputs": [
        {
          "name": "",
          "type": "uint256"
        }
      ],
      "payable": false,
      "stateMutability": "nonpayable",
      "type": "function"
    },
    {
      "constant": false,
      "inputs": [
        {
          "name": "id",
          "type": "uint256"
        }
      ],
      "name": "join",
      "outputs": [
        {
          "name": "",
          "type": "uint256"
        }
      ],
      "payable": false,
      "stateMutability": "nonpayable",
      "type": "function"
    }
  ],
  "bytecode": "0x608060405234801561001057600080fd5b5061256a806100206000396000f300608060405260043610610099576000357c0100000000000000000000000000000000000000000000000000000000900463ffffffff16806302a8dcf5146100ab578063049878f3146101a05780631fadf92a146101e15780635d5536bb146104135780636386c1c71461047f57806369cb7a54146106135780636dbae108146106da578063a825f79914610746578063de257b071461078b575b3480156100a557600080fd5b50600080fd5b3480156100b757600080fd5b5061019e600480360381019080803590602001908201803590602001908080601f0160208091040260200160405190810160405280939291908181526020018383808284378201915050505050509192919290803590602001908201803590602001908080601f0160208091040260200160405190810160405280939291908181526020018383808284378201915050505050509192919290803590602001908201803590602001908080601f01602080910402602001604051908101604052809392919081815260200183838082843782019150505050505091929192905050506108e4565b005b3480156101ac57600080fd5b506101cb60048036038101908080359060200190929190505050610c8a565b6040518082815260200191505060405180910390f35b3480156101ed57600080fd5b5061020c60048036038101908080359060200190929190505050610eda565b604051808973ffffffffffffffffffffffffffffffffffffffff1673ffffffffffffffffffffffffffffffffffffffff1681526020018060200180602001806020018060200188815260200187815260200186815260200185810385528c818151815260200191508051906020019080838360005b8381101561029c578082015181840152602081019050610281565b50505050905090810190601f1680156102c95780820380516001836020036101000a031916815260200191505b5085810384528b818151815260200191508051906020019080838360005b838110156103025780820151818401526020810190506102e7565b50505050905090810190601f16801561032f5780820380516001836020036101000a031916815260200191505b5085810383528a818151815260200191508051906020019080838360005b8381101561036857808201518184015260208101905061034d565b50505050905090810190601f1680156103955780820380516001836020036101000a031916815260200191505b50858103825289818151815260200191508051906020019080838360005b838110156103ce5780820151818401526020810190506103b3565b50505050905090810190601f1680156103fb5780820380516001836020036101000a031916815260200191505b509c5050505050505050505050505060405180910390f35b34801561041f57600080fd5b506104286111ea565b6040518080602001828103825283818151815260200191508051906020019060200280838360005b8381101561046b578082015181840152602081019050610450565b505050509050019250505060405180910390f35b34801561048b57600080fd5b506104c0600480360381019080803573ffffffffffffffffffffffffffffffffffffffff169060200190929190505050611282565b60405180806020018060200180602001848103845287818151815260200191508051906020019080838360005b838110156105085780820151818401526020810190506104ed565b50505050905090810190601f1680156105355780820380516001836020036101000a031916815260200191505b50848103835286818151815260200191508051906020019080838360005b8381101561056e578082015181840152602081019050610553565b50505050905090810190601f16801561059b5780820380516001836020036101000a031916815260200191505b50848103825285818151815260200191508051906020019080838360005b838110156105d45780820151818401526020810190506105b9565b50505050905090810190601f1680156106015780820380516001836020036101000a031916815260200191505b50965050505050505060405180910390f35b34801561061f57600080fd5b506106c0600480360381019080803590602001908201803590602001908080601f0160208091040260200160405190810160405280939291908181526020018383808284378201915050505050509192919290803590602001908201803590602001908080601f01602080910402602001604051908101604052809392919081815260200183838082843782019150505050505091929192905050506114b8565b604051808215151515815260200191505060405180910390f35b3480156106e657600080fd5b506106ef611d69565b6040518080602001828103825283818151815260200191508051906020019060200280838360005b83811015610732578082015181840152602081019050610717565b505050509050019250505060405180910390f35b34801561075257600080fd5b5061077160048036038101908080359060200190929190505050611e01565b604051808215151515815260200191505060405180910390f35b34801561079757600080fd5b506108ce600480360381019080803590602001908201803590602001908080601f0160208091040260200160405190810160405280939291908181526020018383808284378201915050505050509192919290803590602001908201803590602001908080601f0160208091040260200160405190810160405280939291908181526020018383808284378201915050505050509192919290803590602001908201803590602001908080601f0160208091040260200160405190810160405280939291908181526020018383808284378201915050505050509192919290803590602001908201803590602001908080601f016020809104026020016040519081016040528093929190818152602001838380828437820191505050505050919291929080359060200190929190505050611ea0565b6040518082815260200191505060405180910390f35b6060806108ef6122e3565b600160003373ffffffffffffffffffffffffffffffffffffffff1673ffffffffffffffffffffffffffffffffffffffff16815260200190815260200160002060050160009054906101000a900460ff1615151561094b57600080fd5b600160405190808252806020026020018201604052801561097b5781602001602082028038833980820191505090505b50925060016040519080825280602002602001820160405280156109ae5781602001602082028038833980820191505090505b50915060c06040519081016040528087815260200186815260200185815260200184815260200183815260200160011515815250905080600160003373ffffffffffffffffffffffffffffffffffffffff1673ffffffffffffffffffffffffffffffffffffffff1681526020019081526020016000206000820151816000019080519060200190610a4092919061231c565b506020820151816001019080519060200190610a5d92919061231c565b506040820151816002019080519060200190610a7a92919061231c565b506060820151816003019080519060200190610a9792919061239c565b506080820151816004019080519060200190610ab492919061239c565b5060a08201518160050160006101000a81548160ff0219169083151502179055509050507f2d62506561d4815ab0409b02fe658adc8159d9d9db21932298426ce20356c9c133878787604051808573ffffffffffffffffffffffffffffffffffffffff1673ffffffffffffffffffffffffffffffffffffffff168152602001806020018060200180602001848103845287818151815260200191508051906020019080838360005b83811015610b77578082015181840152602081019050610b5c565b50505050905090810190601f168015610ba45780820380516001836020036101000a031916815260200191505b50848103835286818151815260200191508051906020019080838360005b83811015610bdd578082015181840152602081019050610bc2565b50505050905090810190601f168015610c0a5780820380516001836020036101000a031916815260200191505b50848103825285818151815260200191508051906020019080838360005b83811015610c43578082015181840152602081019050610c28565b50505050905090810190601f168015610c705780820380516001836020036101000a031916815260200191505b5097505050505050505060405180910390a1505050505050565b60008060008054905083101515610ca057600080fd5b600160003373ffffffffffffffffffffffffffffffffffffffff1673ffffffffffffffffffffffffffffffffffffffff16815260200190815260200160002060050160009054906101000a900460ff161515610cfb57600080fd5b600083815481101515610d0a57fe5b906000526020600020906009020190503373ffffffffffffffffffffffffffffffffffffffff168160000160009054906101000a900473ffffffffffffffffffffffffffffffffffffffff1673ffffffffffffffffffffffffffffffffffffffff1614158015610d805750610d7e83611e01565b155b1515610d8b57600080fd5b806008013390806001815401808255809150509060018203906000526020600020016000909192909190916101000a81548173ffffffffffffffffffffffffffffffffffffffff021916908373ffffffffffffffffffffffffffffffffffffffff16021790555050600160003373ffffffffffffffffffffffffffffffffffffffff1673ffffffffffffffffffffffffffffffffffffffff1681526020019081526020016000206003018390806001815401808255809150509060018203906000526020600020016000909192909190915055507f95fe243cfd877fe6a52b7ce507150e132d1c253b640348f66c80adfc0babaa438333604051808381526020018273ffffffffffffffffffffffffffffffffffffffff1673ffffffffffffffffffffffffffffffffffffffff1681526020019250505060405180910390a18060080180549050915050919050565b60006060806060806000806000806000805490508a101515610efb57600080fd5b60008a815481101515610f0a57fe5b906000526020600020906009020190508060000160009054906101000a900473ffffffffffffffffffffffffffffffffffffffff1681600101826002018360030184600401856005015486600601548760070154868054600181600116156101000203166002900480601f016020809104026020016040519081016040528092919081815260200182805460018160011615610100020316600290048015610ff35780601f10610fc857610100808354040283529160200191610ff3565b820191906000526020600020905b815481529060010190602001808311610fd657829003601f168201915b50505050509650858054600181600116156101000203166002900480601f01602080910402602001604051908101604052809291908181526020018280546001816001161561010002031660029004801561108f5780601f106110645761010080835404028352916020019161108f565b820191906000526020600020905b81548152906001019060200180831161107257829003601f168201915b50505050509550848054600181600116156101000203166002900480601f01602080910402602001604051908101604052809291908181526020018280546001816001161561010002031660029004801561112b5780601f106111005761010080835404028352916020019161112b565b820191906000526020600020905b81548152906001019060200180831161110e57829003601f168201915b50505050509450838054600181600116156101000203166002900480601f0160208091040260200160405190810160405280929190818152602001828054600181600116156101000203166002900480156111c75780601f1061119c576101008083540402835291602001916111c7565b820191906000526020600020905b8154815290600101906020018083116111aa57829003601f168201915b505050505093509850985098509850985098509850985050919395975091939597565b6060600160003373ffffffffffffffffffffffffffffffffffffffff1673ffffffffffffffffffffffffffffffffffffffff16815260200190815260200160002060030180548060200260200160405190810160405280929190818152602001828054801561127857602002820191906000526020600020905b815481526020019060010190808311611264575b5050505050905090565b60608060606000600160008673ffffffffffffffffffffffffffffffffffffffff1673ffffffffffffffffffffffffffffffffffffffff1681526020019081526020016000209050806000018160010182600201828054600181600116156101000203166002900480601f01602080910402602001604051908101604052809291908181526020018280546001816001161561010002031660029004801561136b5780601f106113405761010080835404028352916020019161136b565b820191906000526020600020905b81548152906001019060200180831161134e57829003601f168201915b50505050509250818054600181600116156101000203166002900480601f0160208091040260200160405190810160405280929190818152602001828054600181600116156101000203166002900480156114075780601f106113dc57610100808354040283529160200191611407565b820191906000526020600020905b8154815290600101906020018083116113ea57829003601f168201915b50505050509150808054600181600116156101000203166002900480601f0160208091040260200160405190810160405280929190818152602001828054600181600116156101000203166002900480156114a35780601f10611478576101008083540402835291602001916114a3565b820191906000526020600020905b81548152906001019060200180831161148657829003601f168201915b50505050509050935093509350509193909250565b60006114c26122e3565b60006114cc6123e9565b600160003373ffffffffffffffffffffffffffffffffffffffff1673ffffffffffffffffffffffffffffffffffffffff16815260200190815260200160002060c06040519081016040529081600082018054600181600116156101000203166002900480601f0160208091040260200160405190810160405280929190818152602001828054600181600116156101000203166002900480156115b05780601f10611585576101008083540402835291602001916115b0565b820191906000526020600020905b81548152906001019060200180831161159357829003601f168201915b50505050508152602001600182018054600181600116156101000203166002900480601f0160208091040260200160405190810160405280929190818152602001828054600181600116156101000203166002900480156116525780601f1061162757610100808354040283529160200191611652565b820191906000526020600020905b81548152906001019060200180831161163557829003601f168201915b50505050508152602001600282018054600181600116156101000203166002900480601f0160208091040260200160405190810160405280929190818152602001828054600181600116156101000203166002900480156116f45780601f106116c9576101008083540402835291602001916116f4565b820191906000526020600020905b8154815290600101906020018083116116d757829003601f168201915b505050505081526020016003820180548060200260200160405190810160405280929190818152602001828054801561174c57602002820191906000526020600020905b815481526020019060010190808311611738575b50505050508152602001600482018054806020026020016040519081016040528092919081815260200182805480156117a457602002820191906000526020600020905b815481526020019060010190808311611790575b505050505081526020016005820160009054906101000a900460ff1615151515815250509250600091505b826080015151821015611d5b576000828154811015156117eb57fe5b906000526020600020906009020161012060405190810160405290816000820160009054906101000a900473ffffffffffffffffffffffffffffffffffffffff1673ffffffffffffffffffffffffffffffffffffffff1673ffffffffffffffffffffffffffffffffffffffff168152602001600182018054600181600116156101000203166002900480601f0160208091040260200160405190810160405280929190818152602001828054600181600116156101000203166002900480156118f55780601f106118ca576101008083540402835291602001916118f5565b820191906000526020600020905b8154815290600101906020018083116118d857829003601f168201915b50505050508152602001600282018054600181600116156101000203166002900480601f0160208091040260200160405190810160405280929190818152602001828054600181600116156101000203166002900480156119975780601f1061196c57610100808354040283529160200191611997565b820191906000526020600020905b81548152906001019060200180831161197a57829003601f168201915b50505050508152602001600382018054600181600116156101000203166002900480601f016020809104026020016040519081016040528092919081815260200182805460018160011615610100020316600290048015611a395780601f10611a0e57610100808354040283529160200191611a39565b820191906000526020600020905b815481529060010190602001808311611a1c57829003601f168201915b50505050508152602001600482018054600181600116156101000203166002900480601f016020809104026020016040519081016040528092919081815260200182805460018160011615610100020316600290048015611adb5780601f10611ab057610100808354040283529160200191611adb565b820191906000526020600020905b815481529060010190602001808311611abe57829003601f168201915b5050505050815260200160058201548152602001600682015481526020016007820154815260200160088201805480602002602001604051908101604052809291908181526020018280548015611b8757602002820191906000526020600020905b8160009054906101000a900473ffffffffffffffffffffffffffffffffffffffff1673ffffffffffffffffffffffffffffffffffffffff1681526020019060010190808311611b3d575b5050505050815250509050856040518082805190602001908083835b602083101515611bc85780518252602082019150602081019050602083039250611ba3565b6001836020036101000a03801982511681845116808217855250505050505090500191505060405180910390206000191681602001516040518082805190602001908083835b602083101515611c335780518252602082019150602081019050602083039250611c0e565b6001836020036101000a038019825116818451168082178552505050505050905001915050604051809103902060001916148015611d405750846040518082805190602001908083835b602083101515611ca25780518252602082019150602081019050602083039250611c7d565b6001836020036101000a03801982511681845116808217855250505050505090500191505060405180910390206000191681604001516040518082805190602001908083835b602083101515611d0d5780518252602082019150602081019050602083039250611ce8565b6001836020036101000a038019825116818451168082178552505050505050905001915050604051809103902060001916145b15611d4e5760019350611d60565b81806001019250506117cf565b600093505b50505092915050565b6060600160003373ffffffffffffffffffffffffffffffffffffffff1673ffffffffffffffffffffffffffffffffffffffff168152602001908152602001600020600401805480602002602001604051908101604052809291908181526020018280548015611df757602002820191906000526020600020905b815481526020019060010190808311611de3575b5050505050905090565b6000806000600160003373ffffffffffffffffffffffffffffffffffffffff1673ffffffffffffffffffffffffffffffffffffffff1681526020019081526020016000209150600090505b8160030180549050811015611e9457838260030182815481101515611e6d57fe5b90600052602060002001541415611e875760019250611e99565b8080600101915050611e4c565b600092505b5050919050565b6000806060611ead6123e9565b600080549050925084604051908082528060200260200182016040528015611ee45781602001602082028038833980820191505090505b509150610120604051908101604052803373ffffffffffffffffffffffffffffffffffffffff1681526020018a8152602001898152602001888152602001878152602001868152602001600081526020014281526020018381525090506000819080600181540180825580915050906001820390600052602060002090600902016000909192909190915060008201518160000160006101000a81548173ffffffffffffffffffffffffffffffffffffffff021916908373ffffffffffffffffffffffffffffffffffffffff1602179055506020820151816001019080519060200190611fd292919061231c565b506040820151816002019080519060200190611fef92919061231c565b50606082015181600301908051906020019061200c92919061231c565b50608082015181600401908051906020019061202992919061231c565b5060a0820151816005015560c0820151816006015560e0820151816007015561010082015181600801908051906020019061206592919061244c565b50505050600160003373ffffffffffffffffffffffffffffffffffffffff1673ffffffffffffffffffffffffffffffffffffffff1681526020019081526020016000206004018390806001815401808255809150509060018203906000526020600020016000909192909190915055507f10efe2685bdcdf81081422d69025845ec9352d6019a1a44590c2847b0f515bfe838a8a8a8a8a8760e00151604051808881526020018060200180602001806020018060200187815260200186815260200185810385528b818151815260200191508051906020019080838360005b8381101561215f578082015181840152602081019050612144565b50505050905090810190601f16801561218c5780820380516001836020036101000a031916815260200191505b5085810384528a818151815260200191508051906020019080838360005b838110156121c55780820151818401526020810190506121aa565b50505050905090810190601f1680156121f25780820380516001836020036101000a031916815260200191505b50858103835289818151815260200191508051906020019080838360005b8381101561222b578082015181840152602081019050612210565b50505050905090810190601f1680156122585780820380516001836020036101000a031916815260200191505b50858103825288818151815260200191508051906020019080838360005b83811015612291578082015181840152602081019050612276565b50505050905090810190601f1680156122be5780820380516001836020036101000a031916815260200191505b509b50505050505050505050505060405180910390a182935050505095945050505050565b60c06040519081016040528060608152602001606081526020016060815260200160608152602001606081526020016000151581525090565b828054600181600116156101000203166002900490600052602060002090601f016020900481019282601f1061235d57805160ff191683800117855561238b565b8280016001018555821561238b579182015b8281111561238a57825182559160200191906001019061236f565b5b50905061239891906124d6565b5090565b8280548282559060005260206000209081019282156123d8579160200282015b828111156123d75782518255916020019190600101906123bc565b5b5090506123e591906124d6565b5090565b61012060405190810160405280600073ffffffffffffffffffffffffffffffffffffffff16815260200160608152602001606081526020016060815260200160608152602001600081526020016000815260200160008152602001606081525090565b8280548282559060005260206000209081019282156124c5579160200282015b828111156124c45782518260006101000a81548173ffffffffffffffffffffffffffffffffffffffff021916908373ffffffffffffffffffffffffffffffffffffffff1602179055509160200191906001019061246c565b5b5090506124d291906124fb565b5090565b6124f891905b808211156124f45760008160009055506001016124dc565b5090565b90565b61253b91905b8082111561253757600081816101000a81549073ffffffffffffffffffffffffffffffffffffffff021916905550600101612501565b5090565b905600a165627a7a723058203adf1e7a6acb62b4b31d24def6b00674e331ad703f6d68dc386727279f4a18700029",
  "source": "pragma solidity ^0.4.17;\n\ncontract TeamMarket {\n    \n    // \n    struct User {\n        string name;  // \n        string email;  \n        string major;  // \n        uint[] joinedComps;  // \n        uint[] publishedComps;  // \n        bool isCreated;\n    }\n\n    struct Competition {\n        address publisher;\n        string theme;  // \n        string intro;  // \n        string requirement;  // \n        string status;  // pending, processing, ended\n        uint max_num;  // \n        uint cur_num;  // \n        uint cred_at;  // \n        address[] joinedUsers;  // \n    }\n\n    Competition[] comps;\n    mapping(address => User) userPool;\n\n    event createSuccess(address addr, string name, string email, string major);\n    event joinSuccess(uint id, address addr);\n    event publishSuccess(uint id, string theme, string intro, string requirement, \n    string status, uint max_num, uint cred_at);\n\n    function getJoinedComps() public view returns (uint[]) {  // view \n        return userPool[msg.sender].joinedComps;\n    }\n\n    function getPublishedComps() public view returns (uint[]) {\n        return userPool[msg.sender].publishedComps;\n    }\n\n    function getCompInfo(uint id) public view returns (\n        address, string, string, string, string, uint, uint, uint\n    ) {\n        require(id < comps.length);\n        Competition storage c = comps[id];\n        return (c.publisher, c.theme, c.intro, c.requirement, \n            c.status, c.max_num, c.cur_num, c.cred_at);\n    }\n\n    function getUserInfo(address addr) public view returns (\n        string, string, string\n    ) {\n        User storage u = userPool[addr];\n        return (u.name, u.email, u.major);\n    }\n\n    function hasPublished(string theme, string intro) public view returns (bool) {\n        User memory u = userPool[msg.sender];\n        for (uint i = 0; i < u.publishedComps.length; i++) {\n            Competition memory c = comps[i];\n            // \n            if (keccak256(c.theme) == keccak256(theme) \n                && keccak256(c.intro) == keccak256(intro))\n                return true;\n        }\n        return false;\n    }\n    \n    function hasJoined(uint id) public view returns (bool) {\n        User storage u = userPool[msg.sender];  //  storage  memory\n        for (uint i = 0; i < u.joinedComps.length; i++) {\n            if (u.joinedComps[i] == id)\n                return true;\n        }\n        return false;\n    }\n\n    function createUsr(string name, string email, string major) public {\n        require(!userPool[msg.sender].isCreated);  // \n        \n        uint[] memory joinedComps = new uint[](1);\n        uint[] memory publishedComps = new uint[](1);\n        User memory u = User(name, email, major, joinedComps, publishedComps, true);\n\n        userPool[msg.sender] = u;\n\n        emit createSuccess(msg.sender, name, email, major);\n    }\n    \n    function publish(\n        string theme, string intro, string requirement, \n        string status, uint max_num) public returns (uint) {\n\n        uint id = comps.length;  //  publish id\n\n        address[] memory u = new address[](max_num);\n        Competition memory c = Competition(\n            msg.sender, theme, intro, requirement, \n            status, max_num, 0, now, u);\n\n        comps.push(c);\n        userPool[msg.sender].publishedComps.push(id);\n\n        emit publishSuccess(id, theme, intro, requirement, status, max_num, c.cred_at);\n\n        return id;\n    }\n\n    function join(uint id) public returns (uint) {\n        require(id < comps.length);\n        require(userPool[msg.sender].isCreated);  // \n        Competition storage c = comps[id];\n        require(c.publisher != msg.sender && !hasJoined(id));  // \n\n        c.joinedUsers.push(msg.sender);\n        userPool[msg.sender].joinedComps.push(id);\n\n        emit joinSuccess(id, msg.sender);\n\n        return c.joinedUsers.length;\n    }\n\n    function () public {\n        revert();\n    }\n}",
  "sourcePath": "/Users/patrick/Desktop/teamseeker-blockchain/contracts/TeamMarket.sol",
  "compiler": {
    "name": "solc",
    "version": "0.4.23+commit.124ca40d.Emscripten.clang"
  },
  "schemaVersion": "2.0.0",
  "updatedAt": "2018-04-29T14:06:39.047Z"
}